{
  "_format": "hh-sol-artifact-1",
  "contractName": "MyNftMarket",
  "sourceName": "contracts/MyNftMarket.sol",
  "abi": [
    {
      "inputs": [
        {
          "internalType": "uint256",
          "name": "listingId",
          "type": "uint256"
        }
      ],
      "name": "buyToken",
      "outputs": [],
      "stateMutability": "payable",
      "type": "function"
    },
    {
      "inputs": [
        {
          "internalType": "uint256",
          "name": "listingId",
          "type": "uint256"
        }
      ],
      "name": "getListing",
      "outputs": [
        {
          "components": [
            {
              "internalType": "address payable",
              "name": "seller",
              "type": "address"
            },
            {
              "internalType": "address payable",
              "name": "owner",
              "type": "address"
            },
            {
              "internalType": "address",
              "name": "token",
              "type": "address"
            },
            {
              "internalType": "uint256",
              "name": "tokenId",
              "type": "uint256"
            },
            {
              "internalType": "uint256",
              "name": "price",
              "type": "uint256"
            },
            {
              "internalType": "bool",
              "name": "sold",
              "type": "bool"
            }
          ],
          "internalType": "struct MyNftMarket.Listing",
          "name": "",
          "type": "tuple"
        }
      ],
      "stateMutability": "view",
      "type": "function"
    },
    {
      "inputs": [],
      "name": "getListingLength",
      "outputs": [
        {
          "internalType": "uint256",
          "name": "",
          "type": "uint256"
        }
      ],
      "stateMutability": "view",
      "type": "function"
    },
    {
      "inputs": [
        {
          "internalType": "address",
          "name": "token",
          "type": "address"
        },
        {
          "internalType": "uint256",
          "name": "tokenId",
          "type": "uint256"
        },
        {
          "internalType": "uint256",
          "name": "price",
          "type": "uint256"
        }
      ],
      "name": "listToken",
      "outputs": [],
      "stateMutability": "nonpayable",
      "type": "function"
    }
  ],
  "bytecode": "0x60806040526000805534801561001457600080fd5b50610ba5806100246000396000f3fe60806040526004361061003f5760003560e01c8063107a274a146100445780632d296bf114610081578063394e197c1461009d5780637e07590d146100c8575b600080fd5b34801561005057600080fd5b5061006b600480360381019061006691906107b1565b6100f1565b604051610078919061096f565b60405180910390f35b61009b600480360381019061009691906107b1565b61024f565b005b3480156100a957600080fd5b506100b2610492565b6040516100bf919061098a565b60405180910390f35b3480156100d457600080fd5b506100ef60048036038101906100ea9190610762565b61049b565b005b6100f96106be565b600160008381526020019081526020016000206040518060c00160405290816000820160009054906101000a900473ffffffffffffffffffffffffffffffffffffffff1673ffffffffffffffffffffffffffffffffffffffff1673ffffffffffffffffffffffffffffffffffffffff1681526020016001820160009054906101000a900473ffffffffffffffffffffffffffffffffffffffff1673ffffffffffffffffffffffffffffffffffffffff1673ffffffffffffffffffffffffffffffffffffffff1681526020016002820160009054906101000a900473ffffffffffffffffffffffffffffffffffffffff1673ffffffffffffffffffffffffffffffffffffffff1673ffffffffffffffffffffffffffffffffffffffff16815260200160038201548152602001600482015481526020016005820160009054906101000a900460ff1615151515815250509050919050565b6000600160008381526020019081526020016000209050806004015434146102ac576040517f08c379a00000000000000000000000000000000000000000000000000000000081526004016102a39061094f565b60405180910390fd5b8060020160009054906101000a900473ffffffffffffffffffffffffffffffffffffffff1673ffffffffffffffffffffffffffffffffffffffff166323b872dd8260010160009054906101000a900473ffffffffffffffffffffffffffffffffffffffff163384600301546040518463ffffffff1660e01b8152600401610335939291906108e1565b600060405180830381600087803b15801561034f57600080fd5b505af1158015610363573d6000803e3d6000fd5b505050508060000160009054906101000a900473ffffffffffffffffffffffffffffffffffffffff1673ffffffffffffffffffffffffffffffffffffffff166108fc349081150290604051600060405180830381858888f193505050501580156103d1573d6000803e3d6000fd5b5060018160050160006101000a81548160ff0219169083151502179055506002816004015461040091906109b6565b8160040181905550338160010160006101000a81548173ffffffffffffffffffffffffffffffffffffffff021916908373ffffffffffffffffffffffffffffffffffffffff160217905550338160000160006101000a81548173ffffffffffffffffffffffffffffffffffffffff021916908373ffffffffffffffffffffffffffffffffffffffff1602179055505050565b60008054905090565b8273ffffffffffffffffffffffffffffffffffffffff166323b872dd3330856040518463ffffffff1660e01b81526004016104d893929190610918565b600060405180830381600087803b1580156104f257600080fd5b505af1158015610506573d6000803e3d6000fd5b5050505060006040518060c001604052803373ffffffffffffffffffffffffffffffffffffffff1681526020013073ffffffffffffffffffffffffffffffffffffffff1681526020018573ffffffffffffffffffffffffffffffffffffffff16815260200184815260200183815260200160001515815250905080600160008054815260200190815260200160002060008201518160000160006101000a81548173ffffffffffffffffffffffffffffffffffffffff021916908373ffffffffffffffffffffffffffffffffffffffff16021790555060208201518160010160006101000a81548173ffffffffffffffffffffffffffffffffffffffff021916908373ffffffffffffffffffffffffffffffffffffffff16021790555060408201518160020160006101000a81548173ffffffffffffffffffffffffffffffffffffffff021916908373ffffffffffffffffffffffffffffffffffffffff160217905550606082015181600301556080820151816004015560a08201518160050160006101000a81548160ff0219169083151502179055509050506000808154809291906106b390610aa0565b919050555050505050565b6040518060c00160405280600073ffffffffffffffffffffffffffffffffffffffff168152602001600073ffffffffffffffffffffffffffffffffffffffff168152602001600073ffffffffffffffffffffffffffffffffffffffff16815260200160008152602001600081526020016000151581525090565b60008135905061074781610b41565b92915050565b60008135905061075c81610b58565b92915050565b60008060006060848603121561077757600080fd5b600061078586828701610738565b93505060206107968682870161074d565b92505060406107a78682870161074d565b9150509250925092565b6000602082840312156107c357600080fd5b60006107d18482850161074d565b91505092915050565b6107e381610a6a565b82525050565b6107f281610a22565b82525050565b61080181610a10565b82525050565b61081081610a10565b82525050565b61081f81610a34565b82525050565b60006108326014836109a5565b915061083d82610b18565b602082019050919050565b60c08201600082015161085e60008501826107e9565b50602082015161087160208501826107e9565b50604082015161088460408501826107f8565b50606082015161089760608501826108c3565b5060808201516108aa60808501826108c3565b5060a08201516108bd60a0850182610816565b50505050565b6108cc81610a60565b82525050565b6108db81610a60565b82525050565b60006060820190506108f660008301866107da565b6109036020830185610807565b61091060408301846108d2565b949350505050565b600060608201905061092d6000830186610807565b61093a6020830185610807565b61094760408301846108d2565b949350505050565b6000602082019050818103600083015261096881610825565b9050919050565b600060c0820190506109846000830184610848565b92915050565b600060208201905061099f60008301846108d2565b92915050565b600082825260208201905092915050565b60006109c182610a60565b91506109cc83610a60565b9250817fffffffffffffffffffffffffffffffffffffffffffffffffffffffffffffffff0483118215151615610a0557610a04610ae9565b5b828202905092915050565b6000610a1b82610a40565b9050919050565b6000610a2d82610a40565b9050919050565b60008115159050919050565b600073ffffffffffffffffffffffffffffffffffffffff82169050919050565b6000819050919050565b6000610a7582610a7c565b9050919050565b6000610a8782610a8e565b9050919050565b6000610a9982610a40565b9050919050565b6000610aab82610a60565b91507fffffffffffffffffffffffffffffffffffffffffffffffffffffffffffffffff821415610ade57610add610ae9565b5b600182019050919050565b7f4e487b7100000000000000000000000000000000000000000000000000000000600052601160045260246000fd5b7f496e73756666696369656e74207061796d656e74000000000000000000000000600082015250565b610b4a81610a10565b8114610b5557600080fd5b50565b610b6181610a60565b8114610b6c57600080fd5b5056fea2646970667358221220662554e43169c84878d07d7f5bc434e45036cd44c5e63af4c5b2e4bdf729316f64736f6c63430008040033",
  "linkReferences": {},
  "deployedLinkReferences": {}
}