{
  "_format": "hh-sol-artifact-1",
  "contractName": "MyNFT",
  "sourceName": "contracts/MyNft.sol",
  "abi": [
    {
      "inputs": [
        {
          "internalType": "address",
          "name": "marketplace",
          "type": "address"
        }
      ],
      "stateMutability": "nonpayable",
      "type": "constructor"
    },
    {
      "anonymous": false,
      "inputs": [
        {
          "indexed": true,
          "internalType": "address",
          "name": "owner",
          "type": "address"
        },
        {
          "indexed": true,
          "internalType": "address",
          "name": "approved",
          "type": "address"
        },
        {
          "indexed": true,
          "internalType": "uint256",
          "name": "tokenId",
          "type": "uint256"
        }
      ],
      "name": "Approval",
      "type": "event"
    },
    {
      "anonymous": false,
      "inputs": [
        {
          "indexed": true,
          "internalType": "address",
          "name": "owner",
          "type": "address"
        },
        {
          "indexed": true,
          "internalType": "address",
          "name": "operator",
          "type": "address"
        },
        {
          "indexed": false,
          "internalType": "bool",
          "name": "approved",
          "type": "bool"
        }
      ],
      "name": "ApprovalForAll",
      "type": "event"
    },
    {
      "anonymous": false,
      "inputs": [
        {
          "indexed": true,
          "internalType": "address",
          "name": "previousOwner",
          "type": "address"
        },
        {
          "indexed": true,
          "internalType": "address",
          "name": "newOwner",
          "type": "address"
        }
      ],
      "name": "OwnershipTransferred",
      "type": "event"
    },
    {
      "anonymous": false,
      "inputs": [
        {
          "indexed": true,
          "internalType": "address",
          "name": "from",
          "type": "address"
        },
        {
          "indexed": true,
          "internalType": "address",
          "name": "to",
          "type": "address"
        },
        {
          "indexed": true,
          "internalType": "uint256",
          "name": "tokenId",
          "type": "uint256"
        }
      ],
      "name": "Transfer",
      "type": "event"
    },
    {
      "inputs": [
        {
          "internalType": "address",
          "name": "to",
          "type": "address"
        },
        {
          "internalType": "uint256",
          "name": "tokenId",
          "type": "uint256"
        }
      ],
      "name": "approve",
      "outputs": [],
      "stateMutability": "nonpayable",
      "type": "function"
    },
    {
      "inputs": [
        {
          "internalType": "address",
          "name": "owner",
          "type": "address"
        }
      ],
      "name": "balanceOf",
      "outputs": [
        {
          "internalType": "uint256",
          "name": "",
          "type": "uint256"
        }
      ],
      "stateMutability": "view",
      "type": "function"
    },
    {
      "inputs": [
        {
          "internalType": "uint256",
          "name": "tokenId",
          "type": "uint256"
        }
      ],
      "name": "getApproved",
      "outputs": [
        {
          "internalType": "address",
          "name": "",
          "type": "address"
        }
      ],
      "stateMutability": "view",
      "type": "function"
    },
    {
      "inputs": [],
      "name": "getTokenId",
      "outputs": [
        {
          "internalType": "uint256",
          "name": "",
          "type": "uint256"
        }
      ],
      "stateMutability": "view",
      "type": "function"
    },
    {
      "inputs": [
        {
          "internalType": "address",
          "name": "owner",
          "type": "address"
        },
        {
          "internalType": "address",
          "name": "operator",
          "type": "address"
        }
      ],
      "name": "isApprovedForAll",
      "outputs": [
        {
          "internalType": "bool",
          "name": "",
          "type": "bool"
        }
      ],
      "stateMutability": "view",
      "type": "function"
    },
    {
      "inputs": [
        {
          "internalType": "string",
          "name": "uri",
          "type": "string"
        }
      ],
      "name": "mint",
      "outputs": [
        {
          "internalType": "uint256",
          "name": "",
          "type": "uint256"
        }
      ],
      "stateMutability": "nonpayable",
      "type": "function"
    },
    {
      "inputs": [],
      "name": "name",
      "outputs": [
        {
          "internalType": "string",
          "name": "",
          "type": "string"
        }
      ],
      "stateMutability": "view",
      "type": "function"
    },
    {
      "inputs": [],
      "name": "owner",
      "outputs": [
        {
          "internalType": "address",
          "name": "",
          "type": "address"
        }
      ],
      "stateMutability": "view",
      "type": "function"
    },
    {
      "inputs": [
        {
          "internalType": "uint256",
          "name": "tokenId",
          "type": "uint256"
        }
      ],
      "name": "ownerOf",
      "outputs": [
        {
          "internalType": "address",
          "name": "",
          "type": "address"
        }
      ],
      "stateMutability": "view",
      "type": "function"
    },
    {
      "inputs": [],
      "name": "renounceOwnership",
      "outputs": [],
      "stateMutability": "nonpayable",
      "type": "function"
    },
    {
      "inputs": [
        {
          "internalType": "uint256",
          "name": "tokenId",
          "type": "uint256"
        }
      ],
      "name": "resaleApproval",
      "outputs": [],
      "stateMutability": "nonpayable",
      "type": "function"
    },
    {
      "inputs": [
        {
          "internalType": "address",
          "name": "from",
          "type": "address"
        },
        {
          "internalType": "address",
          "name": "to",
          "type": "address"
        },
        {
          "internalType": "uint256",
          "name": "tokenId",
          "type": "uint256"
        }
      ],
      "name": "safeTransferFrom",
      "outputs": [],
      "stateMutability": "nonpayable",
      "type": "function"
    },
    {
      "inputs": [
        {
          "internalType": "address",
          "name": "from",
          "type": "address"
        },
        {
          "internalType": "address",
          "name": "to",
          "type": "address"
        },
        {
          "internalType": "uint256",
          "name": "tokenId",
          "type": "uint256"
        },
        {
          "internalType": "bytes",
          "name": "_data",
          "type": "bytes"
        }
      ],
      "name": "safeTransferFrom",
      "outputs": [],
      "stateMutability": "nonpayable",
      "type": "function"
    },
    {
      "inputs": [
        {
          "internalType": "address",
          "name": "operator",
          "type": "address"
        },
        {
          "internalType": "bool",
          "name": "approved",
          "type": "bool"
        }
      ],
      "name": "setApprovalForAll",
      "outputs": [],
      "stateMutability": "nonpayable",
      "type": "function"
    },
    {
      "inputs": [
        {
          "internalType": "bytes4",
          "name": "interfaceId",
          "type": "bytes4"
        }
      ],
      "name": "supportsInterface",
      "outputs": [
        {
          "internalType": "bool",
          "name": "",
          "type": "bool"
        }
      ],
      "stateMutability": "view",
      "type": "function"
    },
    {
      "inputs": [],
      "name": "symbol",
      "outputs": [
        {
          "internalType": "string",
          "name": "",
          "type": "string"
        }
      ],
      "stateMutability": "view",
      "type": "function"
    },
    {
      "inputs": [
        {
          "internalType": "uint256",
          "name": "index",
          "type": "uint256"
        }
      ],
      "name": "tokenByIndex",
      "outputs": [
        {
          "internalType": "uint256",
          "name": "",
          "type": "uint256"
        }
      ],
      "stateMutability": "view",
      "type": "function"
    },
    {
      "inputs": [
        {
          "internalType": "address",
          "name": "owner",
          "type": "address"
        },
        {
          "internalType": "uint256",
          "name": "index",
          "type": "uint256"
        }
      ],
      "name": "tokenOfOwnerByIndex",
      "outputs": [
        {
          "internalType": "uint256",
          "name": "",
          "type": "uint256"
        }
      ],
      "stateMutability": "view",
      "type": "function"
    },
    {
      "inputs": [
        {
          "internalType": "uint256",
          "name": "tokenId",
          "type": "uint256"
        }
      ],
      "name": "tokenURI",
      "outputs": [
        {
          "internalType": "string",
          "name": "",
          "type": "string"
        }
      ],
      "stateMutability": "view",
      "type": "function"
    },
    {
      "inputs": [],
      "name": "totalSupply",
      "outputs": [
        {
          "internalType": "uint256",
          "name": "",
          "type": "uint256"
        }
      ],
      "stateMutability": "view",
      "type": "function"
    },
    {
      "inputs": [
        {
          "internalType": "address",
          "name": "from",
          "type": "address"
        },
        {
          "internalType": "address",
          "name": "to",
          "type": "address"
        },
        {
          "internalType": "uint256",
          "name": "tokenId",
          "type": "uint256"
        }
      ],
      "name": "transferFrom",
      "outputs": [],
      "stateMutability": "nonpayable",
      "type": "function"
    },
    {
      "inputs": [
        {
          "internalType": "address",
          "name": "newOwner",
          "type": "address"
        }
      ],
      "name": "transferOwnership",
      "outputs": [],
      "stateMutability": "nonpayable",
      "type": "function"
    }
  ],
  "bytecode": "0x60806040526000600e553480156200001657600080fd5b5060405162003d0738038062003d0783398181016040528101906200003c9190620002d9565b6040518060400160405280600c81526020017f44726970746f20506f6e6b7300000000000000000000000000000000000000008152506040518060400160405280600381526020017f44505400000000000000000000000000000000000000000000000000000000008152508160009080519060200190620000c092919062000212565b508060019080519060200190620000d992919062000212565b505050620000fc620000f06200014460201b60201c565b6200014c60201b60201c565b80600d60006101000a81548173ffffffffffffffffffffffffffffffffffffffff021916908373ffffffffffffffffffffffffffffffffffffffff16021790555050620003b8565b600033905090565b6000600660009054906101000a900473ffffffffffffffffffffffffffffffffffffffff16905081600660006101000a81548173ffffffffffffffffffffffffffffffffffffffff021916908373ffffffffffffffffffffffffffffffffffffffff1602179055508173ffffffffffffffffffffffffffffffffffffffff168173ffffffffffffffffffffffffffffffffffffffff167f8be0079c531659141344cd1fd0a4f28419497f9722a3daafe3b4186f6b6457e060405160405180910390a35050565b828054620002209062000339565b90600052602060002090601f01602090048101928262000244576000855562000290565b82601f106200025f57805160ff191683800117855562000290565b8280016001018555821562000290579182015b828111156200028f57825182559160200191906001019062000272565b5b5090506200029f9190620002a3565b5090565b5b80821115620002be576000816000905550600101620002a4565b5090565b600081519050620002d3816200039e565b92915050565b600060208284031215620002ec57600080fd5b6000620002fc84828501620002c2565b91505092915050565b6000620003128262000319565b9050919050565b600073ffffffffffffffffffffffffffffffffffffffff82169050919050565b600060028204905060018216806200035257607f821691505b602082108114156200036957620003686200036f565b5b50919050565b7f4e487b7100000000000000000000000000000000000000000000000000000000600052602260045260246000fd5b620003a98162000305565b8114620003b557600080fd5b50565b61393f80620003c86000396000f3fe608060405234801561001057600080fd5b50600436106101425760003560e01c80636352211e116100b8578063a22cb4651161007c578063a22cb46514610377578063b88d4fde14610393578063c87b56dd146103af578063d85d3d27146103df578063e985e9c51461040f578063f2fde38b1461043f57610142565b80636352211e146102d157806370a0823114610301578063715018a6146103315780638da5cb5b1461033b57806395d89b411461035957610142565b806318160ddd1161010a57806318160ddd146101ff578063214fce3c1461021d57806323b872dd146102395780632f745c591461025557806342842e0e146102855780634f6ccce7146102a157610142565b8063010a38f51461014757806301ffc9a71461016557806306fdde0314610195578063081812fc146101b3578063095ea7b3146101e3575b600080fd5b61014f61045b565b60405161015c9190612eca565b60405180910390f35b61017f600480360381019061017a91906126f7565b610465565b60405161018c9190612bed565b60405180910390f35b61019d610477565b6040516101aa9190612c08565b60405180910390f35b6101cd60048036038101906101c8919061278a565b610509565b6040516101da9190612b86565b60405180910390f35b6101fd60048036038101906101f891906126bb565b61058e565b005b6102076106a6565b6040516102149190612eca565b60405180910390f35b6102376004803603810190610232919061278a565b6106b3565b005b610253600480360381019061024e91906125b5565b610759565b005b61026f600480360381019061026a91906126bb565b6107b9565b60405161027c9190612eca565b60405180910390f35b61029f600480360381019061029a91906125b5565b61085e565b005b6102bb60048036038101906102b6919061278a565b61087e565b6040516102c89190612eca565b60405180910390f35b6102eb60048036038101906102e6919061278a565b610915565b6040516102f89190612b86565b60405180910390f35b61031b60048036038101906103169190612550565b6109c7565b6040516103289190612eca565b60405180910390f35b610339610a7f565b005b610343610b07565b6040516103509190612b86565b60405180910390f35b610361610b31565b60405161036e9190612c08565b60405180910390f35b610391600480360381019061038c919061267f565b610bc3565b005b6103ad60048036038101906103a89190612604565b610bd9565b005b6103c960048036038101906103c4919061278a565b610c3b565b6040516103d69190612c08565b60405180910390f35b6103f960048036038101906103f49190612749565b610c4d565b6040516104069190612eca565b60405180910390f35b61042960048036038101906104249190612579565b610cb6565b6040516104369190612bed565b60405180910390f35b61045960048036038101906104549190612550565b610d4a565b005b6000600e54905090565b600061047082610e42565b9050919050565b60606000805461048690613120565b80601f01602080910402602001604051908101604052809291908181526020018280546104b290613120565b80156104ff5780601f106104d4576101008083540402835291602001916104ff565b820191906000526020600020905b8154815290600101906020018083116104e257829003601f168201915b5050505050905090565b600061051482610ebc565b610553576040517f08c379a000000000000000000000000000000000000000000000000000000000815260040161054a90612dea565b60405180910390fd5b6004600083815260200190815260200160002060009054906101000a900473ffffffffffffffffffffffffffffffffffffffff169050919050565b600061059982610915565b90508073ffffffffffffffffffffffffffffffffffffffff168373ffffffffffffffffffffffffffffffffffffffff16141561060a576040517f08c379a000000000000000000000000000000000000000000000000000000000815260040161060190612e6a565b60405180910390fd5b8073ffffffffffffffffffffffffffffffffffffffff16610629610f28565b73ffffffffffffffffffffffffffffffffffffffff161480610658575061065781610652610f28565b610cb6565b5b610697576040517f08c379a000000000000000000000000000000000000000000000000000000000815260040161068e90612d2a565b60405180910390fd5b6106a18383610f30565b505050565b6000600980549050905090565b3373ffffffffffffffffffffffffffffffffffffffff166106d382610915565b73ffffffffffffffffffffffffffffffffffffffff1614610729576040517f08c379a000000000000000000000000000000000000000000000000000000000815260040161072090612e2a565b60405180910390fd5b610756600d60009054906101000a900473ffffffffffffffffffffffffffffffffffffffff166001610bc3565b50565b61076a610764610f28565b82610fe9565b6107a9576040517f08c379a00000000000000000000000000000000000000000000000000000000081526004016107a090612e8a565b60405180910390fd5b6107b48383836110c7565b505050565b60006107c4836109c7565b8210610805576040517f08c379a00000000000000000000000000000000000000000000000000000000081526004016107fc90612c2a565b60405180910390fd5b600760008473ffffffffffffffffffffffffffffffffffffffff1673ffffffffffffffffffffffffffffffffffffffff168152602001908152602001600020600083815260200190815260200160002054905092915050565b61087983838360405180602001604052806000815250610bd9565b505050565b60006108886106a6565b82106108c9576040517f08c379a00000000000000000000000000000000000000000000000000000000081526004016108c090612eaa565b60405180910390fd5b60098281548110610903577f4e487b7100000000000000000000000000000000000000000000000000000000600052603260045260246000fd5b90600052602060002001549050919050565b6000806002600084815260200190815260200160002060009054906101000a900473ffffffffffffffffffffffffffffffffffffffff169050600073ffffffffffffffffffffffffffffffffffffffff168173ffffffffffffffffffffffffffffffffffffffff1614156109be576040517f08c379a00000000000000000000000000000000000000000000000000000000081526004016109b590612d6a565b60405180910390fd5b80915050919050565b60008073ffffffffffffffffffffffffffffffffffffffff168273ffffffffffffffffffffffffffffffffffffffff161415610a38576040517f08c379a0000000000000000000000000000000000000000000000000000000008152600401610a2f90612d4a565b60405180910390fd5b600360008373ffffffffffffffffffffffffffffffffffffffff1673ffffffffffffffffffffffffffffffffffffffff168152602001908152602001600020549050919050565b610a87610f28565b73ffffffffffffffffffffffffffffffffffffffff16610aa5610b07565b73ffffffffffffffffffffffffffffffffffffffff1614610afb576040517f08c379a0000000000000000000000000000000000000000000000000000000008152600401610af290612e0a565b60405180910390fd5b610b05600061132e565b565b6000600660009054906101000a900473ffffffffffffffffffffffffffffffffffffffff16905090565b606060018054610b4090613120565b80601f0160208091040260200160405190810160405280929190818152602001828054610b6c90613120565b8015610bb95780601f10610b8e57610100808354040283529160200191610bb9565b820191906000526020600020905b815481529060010190602001808311610b9c57829003601f168201915b5050505050905090565b610bd5610bce610f28565b83836113f4565b5050565b610bea610be4610f28565b83610fe9565b610c29576040517f08c379a0000000000000000000000000000000000000000000000000000000008152600401610c2090612e8a565b60405180910390fd5b610c3584848484611561565b50505050565b6060610c46826115bd565b9050919050565b6000600e6000815480929190610c6290613183565b9190505550610c7333600e5461170f565b610c7f600e54836118e9565b610cac600d60009054906101000a900473ffffffffffffffffffffffffffffffffffffffff166001610bc3565b600e549050919050565b6000600560008473ffffffffffffffffffffffffffffffffffffffff1673ffffffffffffffffffffffffffffffffffffffff16815260200190815260200160002060008373ffffffffffffffffffffffffffffffffffffffff1673ffffffffffffffffffffffffffffffffffffffff16815260200190815260200160002060009054906101000a900460ff16905092915050565b610d52610f28565b73ffffffffffffffffffffffffffffffffffffffff16610d70610b07565b73ffffffffffffffffffffffffffffffffffffffff1614610dc6576040517f08c379a0000000000000000000000000000000000000000000000000000000008152600401610dbd90612e0a565b60405180910390fd5b600073ffffffffffffffffffffffffffffffffffffffff168173ffffffffffffffffffffffffffffffffffffffff161415610e36576040517f08c379a0000000000000000000000000000000000000000000000000000000008152600401610e2d90612c6a565b60405180910390fd5b610e3f8161132e565b50565b60007f780e9d63000000000000000000000000000000000000000000000000000000007bffffffffffffffffffffffffffffffffffffffffffffffffffffffff1916827bffffffffffffffffffffffffffffffffffffffffffffffffffffffff19161480610eb55750610eb48261195d565b5b9050919050565b60008073ffffffffffffffffffffffffffffffffffffffff166002600084815260200190815260200160002060009054906101000a900473ffffffffffffffffffffffffffffffffffffffff1673ffffffffffffffffffffffffffffffffffffffff1614159050919050565b600033905090565b816004600083815260200190815260200160002060006101000a81548173ffffffffffffffffffffffffffffffffffffffff021916908373ffffffffffffffffffffffffffffffffffffffff160217905550808273ffffffffffffffffffffffffffffffffffffffff16610fa383610915565b73ffffffffffffffffffffffffffffffffffffffff167f8c5be1e5ebec7d5bd14f71427d1e84f3dd0314c0f7b2291e5b200ac8c7c3b92560405160405180910390a45050565b6000610ff482610ebc565b611033576040517f08c379a000000000000000000000000000000000000000000000000000000000815260040161102a90612d0a565b60405180910390fd5b600061103e83610915565b90508073ffffffffffffffffffffffffffffffffffffffff168473ffffffffffffffffffffffffffffffffffffffff1614806110ad57508373ffffffffffffffffffffffffffffffffffffffff1661109584610509565b73ffffffffffffffffffffffffffffffffffffffff16145b806110be57506110bd8185610cb6565b5b91505092915050565b8273ffffffffffffffffffffffffffffffffffffffff166110e782610915565b73ffffffffffffffffffffffffffffffffffffffff161461113d576040517f08c379a000000000000000000000000000000000000000000000000000000000815260040161113490612c8a565b60405180910390fd5b600073ffffffffffffffffffffffffffffffffffffffff168273ffffffffffffffffffffffffffffffffffffffff1614156111ad576040517f08c379a00000000000000000000000000000000000000000000000000000000081526004016111a490612cca565b60405180910390fd5b6111b8838383611a3f565b6111c3600082610f30565b6001600360008573ffffffffffffffffffffffffffffffffffffffff1673ffffffffffffffffffffffffffffffffffffffff16815260200190815260200160002060008282546112139190613036565b925050819055506001600360008473ffffffffffffffffffffffffffffffffffffffff1673ffffffffffffffffffffffffffffffffffffffff168152602001908152602001600020600082825461126a9190612faf565b92505081905550816002600083815260200190815260200160002060006101000a81548173ffffffffffffffffffffffffffffffffffffffff021916908373ffffffffffffffffffffffffffffffffffffffff160217905550808273ffffffffffffffffffffffffffffffffffffffff168473ffffffffffffffffffffffffffffffffffffffff167fddf252ad1be2c89b69c2b068fc378daa952ba7f163c4a11628f55a4df523b3ef60405160405180910390a4611329838383611a4f565b505050565b6000600660009054906101000a900473ffffffffffffffffffffffffffffffffffffffff16905081600660006101000a81548173ffffffffffffffffffffffffffffffffffffffff021916908373ffffffffffffffffffffffffffffffffffffffff1602179055508173ffffffffffffffffffffffffffffffffffffffff168173ffffffffffffffffffffffffffffffffffffffff167f8be0079c531659141344cd1fd0a4f28419497f9722a3daafe3b4186f6b6457e060405160405180910390a35050565b8173ffffffffffffffffffffffffffffffffffffffff168373ffffffffffffffffffffffffffffffffffffffff161415611463576040517f08c379a000000000000000000000000000000000000000000000000000000000815260040161145a90612cea565b60405180910390fd5b80600560008573ffffffffffffffffffffffffffffffffffffffff1673ffffffffffffffffffffffffffffffffffffffff16815260200190815260200160002060008473ffffffffffffffffffffffffffffffffffffffff1673ffffffffffffffffffffffffffffffffffffffff16815260200190815260200160002060006101000a81548160ff0219169083151502179055508173ffffffffffffffffffffffffffffffffffffffff168373ffffffffffffffffffffffffffffffffffffffff167f17307eab39ab6107e8899845ad3d59bd9653f200f220920489ca2b5937696c31836040516115549190612bed565b60405180910390a3505050565b61156c8484846110c7565b61157884848484611a54565b6115b7576040517f08c379a00000000000000000000000000000000000000000000000000000000081526004016115ae90612c4a565b60405180910390fd5b50505050565b60606115c882610ebc565b611607576040517f08c379a00000000000000000000000000000000000000000000000000000000081526004016115fe90612dca565b60405180910390fd5b6000600b6000848152602001908152602001600020805461162790613120565b80601f016020809104026020016040519081016040528092919081815260200182805461165390613120565b80156116a05780601f10611675576101008083540402835291602001916116a0565b820191906000526020600020905b81548152906001019060200180831161168357829003601f168201915b5050505050905060006116b1611beb565b90506000815114156116c757819250505061170a565b6000825111156116fc5780826040516020016116e4929190612b62565b6040516020818303038152906040529250505061170a565b61170584611c02565b925050505b919050565b600073ffffffffffffffffffffffffffffffffffffffff168273ffffffffffffffffffffffffffffffffffffffff16141561177f576040517f08c379a000000000000000000000000000000000000000000000000000000000815260040161177690612daa565b60405180910390fd5b61178881610ebc565b156117c8576040517f08c379a00000000000000000000000000000000000000000000000000000000081526004016117bf90612caa565b60405180910390fd5b6117d460008383611a3f565b6001600360008473ffffffffffffffffffffffffffffffffffffffff1673ffffffffffffffffffffffffffffffffffffffff16815260200190815260200160002060008282546118249190612faf565b92505081905550816002600083815260200190815260200160002060006101000a81548173ffffffffffffffffffffffffffffffffffffffff021916908373ffffffffffffffffffffffffffffffffffffffff160217905550808273ffffffffffffffffffffffffffffffffffffffff16600073ffffffffffffffffffffffffffffffffffffffff167fddf252ad1be2c89b69c2b068fc378daa952ba7f163c4a11628f55a4df523b3ef60405160405180910390a46118e560008383611a4f565b5050565b6118f282610ebc565b611931576040517f08c379a000000000000000000000000000000000000000000000000000000000815260040161192890612d8a565b60405180910390fd5b80600b60008481526020019081526020016000209080519060200190611958929190612374565b505050565b60007f80ac58cd000000000000000000000000000000000000000000000000000000007bffffffffffffffffffffffffffffffffffffffffffffffffffffffff1916827bffffffffffffffffffffffffffffffffffffffffffffffffffffffff19161480611a2857507f5b5e139f000000000000000000000000000000000000000000000000000000007bffffffffffffffffffffffffffffffffffffffffffffffffffffffff1916827bffffffffffffffffffffffffffffffffffffffffffffffffffffffff1916145b80611a385750611a3782611ca9565b5b9050919050565b611a4a838383611d13565b505050565b505050565b6000611a758473ffffffffffffffffffffffffffffffffffffffff16611e27565b15611bde578373ffffffffffffffffffffffffffffffffffffffff1663150b7a02611a9e610f28565b8786866040518563ffffffff1660e01b8152600401611ac09493929190612ba1565b602060405180830381600087803b158015611ada57600080fd5b505af1925050508015611b0b57506040513d601f19601f82011682018060405250810190611b089190612720565b60015b611b8e573d8060008114611b3b576040519150601f19603f3d011682016040523d82523d6000602084013e611b40565b606091505b50600081511415611b86576040517f08c379a0000000000000000000000000000000000000000000000000000000008152600401611b7d90612c4a565b60405180910390fd5b805181602001fd5b63150b7a0260e01b7bffffffffffffffffffffffffffffffffffffffffffffffffffffffff1916817bffffffffffffffffffffffffffffffffffffffffffffffffffffffff191614915050611be3565b600190505b949350505050565b606060405180602001604052806000815250905090565b6060611c0d82610ebc565b611c4c576040517f08c379a0000000000000000000000000000000000000000000000000000000008152600401611c4390612e4a565b60405180910390fd5b6000611c56611beb565b90506000815111611c765760405180602001604052806000815250611ca1565b80611c8084611e4a565b604051602001611c91929190612b62565b6040516020818303038152906040525b915050919050565b60007f01ffc9a7000000000000000000000000000000000000000000000000000000007bffffffffffffffffffffffffffffffffffffffffffffffffffffffff1916827bffffffffffffffffffffffffffffffffffffffffffffffffffffffff1916149050919050565b611d1e838383611ff7565b600073ffffffffffffffffffffffffffffffffffffffff168373ffffffffffffffffffffffffffffffffffffffff161415611d6157611d5c81611ffc565b611da0565b8173ffffffffffffffffffffffffffffffffffffffff168373ffffffffffffffffffffffffffffffffffffffff1614611d9f57611d9e8382612045565b5b5b600073ffffffffffffffffffffffffffffffffffffffff168273ffffffffffffffffffffffffffffffffffffffff161415611de357611dde816121b2565b611e22565b8273ffffffffffffffffffffffffffffffffffffffff168273ffffffffffffffffffffffffffffffffffffffff1614611e2157611e2082826122f5565b5b5b505050565b6000808273ffffffffffffffffffffffffffffffffffffffff163b119050919050565b60606000821415611e92576040518060400160405280600181526020017f30000000000000000000000000000000000000000000000000000000000000008152509050611ff2565b600082905060005b60008214611ec4578080611ead90613183565b915050600a82611ebd9190613005565b9150611e9a565b60008167ffffffffffffffff811115611f06577f4e487b7100000000000000000000000000000000000000000000000000000000600052604160045260246000fd5b6040519080825280601f01601f191660200182016040528015611f385781602001600182028036833780820191505090505b5090505b60008514611feb57600182611f519190613036565b9150600a85611f6091906131cc565b6030611f6c9190612faf565b60f81b818381518110611fa8577f4e487b7100000000000000000000000000000000000000000000000000000000600052603260045260246000fd5b60200101907effffffffffffffffffffffffffffffffffffffffffffffffffffffffffffff1916908160001a905350600a85611fe49190613005565b9450611f3c565b8093505050505b919050565b505050565b600980549050600a600083815260200190815260200160002081905550600981908060018154018082558091505060019003906000526020600020016000909190919091505550565b60006001612052846109c7565b61205c9190613036565b9050600060086000848152602001908152602001600020549050818114612141576000600760008673ffffffffffffffffffffffffffffffffffffffff1673ffffffffffffffffffffffffffffffffffffffff168152602001908152602001600020600084815260200190815260200160002054905080600760008773ffffffffffffffffffffffffffffffffffffffff1673ffffffffffffffffffffffffffffffffffffffff168152602001908152602001600020600084815260200190815260200160002081905550816008600083815260200190815260200160002081905550505b6008600084815260200190815260200160002060009055600760008573ffffffffffffffffffffffffffffffffffffffff1673ffffffffffffffffffffffffffffffffffffffff16815260200190815260200160002060008381526020019081526020016000206000905550505050565b600060016009805490506121c69190613036565b90506000600a600084815260200190815260200160002054905060006009838154811061221c577f4e487b7100000000000000000000000000000000000000000000000000000000600052603260045260246000fd5b906000526020600020015490508060098381548110612264577f4e487b7100000000000000000000000000000000000000000000000000000000600052603260045260246000fd5b906000526020600020018190555081600a600083815260200190815260200160002081905550600a60008581526020019081526020016000206000905560098054806122d9577f4e487b7100000000000000000000000000000000000000000000000000000000600052603160045260246000fd5b6001900381819060005260206000200160009055905550505050565b6000612300836109c7565b905081600760008573ffffffffffffffffffffffffffffffffffffffff1673ffffffffffffffffffffffffffffffffffffffff168152602001908152602001600020600083815260200190815260200160002081905550806008600084815260200190815260200160002081905550505050565b82805461238090613120565b90600052602060002090601f0160209004810192826123a257600085556123e9565b82601f106123bb57805160ff19168380011785556123e9565b828001600101855582156123e9579182015b828111156123e85782518255916020019190600101906123cd565b5b5090506123f691906123fa565b5090565b5b808211156124135760008160009055506001016123fb565b5090565b600061242a61242584612f0a565b612ee5565b90508281526020810184848401111561244257600080fd5b61244d8482856130de565b509392505050565b600061246861246384612f3b565b612ee5565b90508281526020810184848401111561248057600080fd5b61248b8482856130de565b509392505050565b6000813590506124a2816138ad565b92915050565b6000813590506124b7816138c4565b92915050565b6000813590506124cc816138db565b92915050565b6000815190506124e1816138db565b92915050565b600082601f8301126124f857600080fd5b8135612508848260208601612417565b91505092915050565b600082601f83011261252257600080fd5b8135612532848260208601612455565b91505092915050565b60008135905061254a816138f2565b92915050565b60006020828403121561256257600080fd5b600061257084828501612493565b91505092915050565b6000806040838503121561258c57600080fd5b600061259a85828601612493565b92505060206125ab85828601612493565b9150509250929050565b6000806000606084860312156125ca57600080fd5b60006125d886828701612493565b93505060206125e986828701612493565b92505060406125fa8682870161253b565b9150509250925092565b6000806000806080858703121561261a57600080fd5b600061262887828801612493565b945050602061263987828801612493565b935050604061264a8782880161253b565b925050606085013567ffffffffffffffff81111561266757600080fd5b612673878288016124e7565b91505092959194509250565b6000806040838503121561269257600080fd5b60006126a085828601612493565b92505060206126b1858286016124a8565b9150509250929050565b600080604083850312156126ce57600080fd5b60006126dc85828601612493565b92505060206126ed8582860161253b565b9150509250929050565b60006020828403121561270957600080fd5b6000612717848285016124bd565b91505092915050565b60006020828403121561273257600080fd5b6000612740848285016124d2565b91505092915050565b60006020828403121561275b57600080fd5b600082013567ffffffffffffffff81111561277557600080fd5b61278184828501612511565b91505092915050565b60006020828403121561279c57600080fd5b60006127aa8482850161253b565b91505092915050565b6127bc8161306a565b82525050565b6127cb8161307c565b82525050565b60006127dc82612f6c565b6127e68185612f82565b93506127f68185602086016130ed565b6127ff816132b9565b840191505092915050565b600061281582612f77565b61281f8185612f93565b935061282f8185602086016130ed565b612838816132b9565b840191505092915050565b600061284e82612f77565b6128588185612fa4565b93506128688185602086016130ed565b80840191505092915050565b6000612881602b83612f93565b915061288c826132ca565b604082019050919050565b60006128a4603283612f93565b91506128af82613319565b604082019050919050565b60006128c7602683612f93565b91506128d282613368565b604082019050919050565b60006128ea602583612f93565b91506128f5826133b7565b604082019050919050565b600061290d601c83612f93565b915061291882613406565b602082019050919050565b6000612930602483612f93565b915061293b8261342f565b604082019050919050565b6000612953601983612f93565b915061295e8261347e565b602082019050919050565b6000612976602c83612f93565b9150612981826134a7565b604082019050919050565b6000612999603883612f93565b91506129a4826134f6565b604082019050919050565b60006129bc602a83612f93565b91506129c782613545565b604082019050919050565b60006129df602983612f93565b91506129ea82613594565b604082019050919050565b6000612a02602e83612f93565b9150612a0d826135e3565b604082019050919050565b6000612a25602083612f93565b9150612a3082613632565b602082019050919050565b6000612a48603183612f93565b9150612a538261365b565b604082019050919050565b6000612a6b602c83612f93565b9150612a76826136aa565b604082019050919050565b6000612a8e602083612f93565b9150612a99826136f9565b602082019050919050565b6000612ab1602b83612f93565b9150612abc82613722565b604082019050919050565b6000612ad4602f83612f93565b9150612adf82613771565b604082019050919050565b6000612af7602183612f93565b9150612b02826137c0565b604082019050919050565b6000612b1a603183612f93565b9150612b258261380f565b604082019050919050565b6000612b3d602c83612f93565b9150612b488261385e565b604082019050919050565b612b5c816130d4565b82525050565b6000612b6e8285612843565b9150612b7a8284612843565b91508190509392505050565b6000602082019050612b9b60008301846127b3565b92915050565b6000608082019050612bb660008301876127b3565b612bc360208301866127b3565b612bd06040830185612b53565b8181036060830152612be281846127d1565b905095945050505050565b6000602082019050612c0260008301846127c2565b92915050565b60006020820190508181036000830152612c22818461280a565b905092915050565b60006020820190508181036000830152612c4381612874565b9050919050565b60006020820190508181036000830152612c6381612897565b9050919050565b60006020820190508181036000830152612c83816128ba565b9050919050565b60006020820190508181036000830152612ca3816128dd565b9050919050565b60006020820190508181036000830152612cc381612900565b9050919050565b60006020820190508181036000830152612ce381612923565b9050919050565b60006020820190508181036000830152612d0381612946565b9050919050565b60006020820190508181036000830152612d2381612969565b9050919050565b60006020820190508181036000830152612d438161298c565b9050919050565b60006020820190508181036000830152612d63816129af565b9050919050565b60006020820190508181036000830152612d83816129d2565b9050919050565b60006020820190508181036000830152612da3816129f5565b9050919050565b60006020820190508181036000830152612dc381612a18565b9050919050565b60006020820190508181036000830152612de381612a3b565b9050919050565b60006020820190508181036000830152612e0381612a5e565b9050919050565b60006020820190508181036000830152612e2381612a81565b9050919050565b60006020820190508181036000830152612e4381612aa4565b9050919050565b60006020820190508181036000830152612e6381612ac7565b9050919050565b60006020820190508181036000830152612e8381612aea565b9050919050565b60006020820190508181036000830152612ea381612b0d565b9050919050565b60006020820190508181036000830152612ec381612b30565b9050919050565b6000602082019050612edf6000830184612b53565b92915050565b6000612eef612f00565b9050612efb8282613152565b919050565b6000604051905090565b600067ffffffffffffffff821115612f2557612f2461328a565b5b612f2e826132b9565b9050602081019050919050565b600067ffffffffffffffff821115612f5657612f5561328a565b5b612f5f826132b9565b9050602081019050919050565b600081519050919050565b600081519050919050565b600082825260208201905092915050565b600082825260208201905092915050565b600081905092915050565b6000612fba826130d4565b9150612fc5836130d4565b9250827fffffffffffffffffffffffffffffffffffffffffffffffffffffffffffffffff03821115612ffa57612ff96131fd565b5b828201905092915050565b6000613010826130d4565b915061301b836130d4565b92508261302b5761302a61322c565b5b828204905092915050565b6000613041826130d4565b915061304c836130d4565b92508282101561305f5761305e6131fd565b5b828203905092915050565b6000613075826130b4565b9050919050565b60008115159050919050565b60007fffffffff0000000000000000000000000000000000000000000000000000000082169050919050565b600073ffffffffffffffffffffffffffffffffffffffff82169050919050565b6000819050919050565b82818337600083830152505050565b60005b8381101561310b5780820151818401526020810190506130f0565b8381111561311a576000848401525b50505050565b6000600282049050600182168061313857607f821691505b6020821081141561314c5761314b61325b565b5b50919050565b61315b826132b9565b810181811067ffffffffffffffff8211171561317a5761317961328a565b5b80604052505050565b600061318e826130d4565b91507fffffffffffffffffffffffffffffffffffffffffffffffffffffffffffffffff8214156131c1576131c06131fd565b5b600182019050919050565b60006131d7826130d4565b91506131e2836130d4565b9250826131f2576131f161322c565b5b828206905092915050565b7f4e487b7100000000000000000000000000000000000000000000000000000000600052601160045260246000fd5b7f4e487b7100000000000000000000000000000000000000000000000000000000600052601260045260246000fd5b7f4e487b7100000000000000000000000000000000000000000000000000000000600052602260045260246000fd5b7f4e487b7100000000000000000000000000000000000000000000000000000000600052604160045260246000fd5b6000601f19601f8301169050919050565b7f455243373231456e756d657261626c653a206f776e657220696e646578206f7560008201527f74206f6620626f756e6473000000000000000000000000000000000000000000602082015250565b7f4552433732313a207472616e7366657220746f206e6f6e20455243373231526560008201527f63656976657220696d706c656d656e7465720000000000000000000000000000602082015250565b7f4f776e61626c653a206e6577206f776e657220697320746865207a65726f206160008201527f6464726573730000000000000000000000000000000000000000000000000000602082015250565b7f4552433732313a207472616e736665722066726f6d20696e636f72726563742060008201527f6f776e6572000000000000000000000000000000000000000000000000000000602082015250565b7f4552433732313a20746f6b656e20616c7265616479206d696e74656400000000600082015250565b7f4552433732313a207472616e7366657220746f20746865207a65726f2061646460008201527f7265737300000000000000000000000000000000000000000000000000000000602082015250565b7f4552433732313a20617070726f766520746f2063616c6c657200000000000000600082015250565b7f4552433732313a206f70657261746f7220717565727920666f72206e6f6e657860008201527f697374656e7420746f6b656e0000000000000000000000000000000000000000602082015250565b7f4552433732313a20617070726f76652063616c6c6572206973206e6f74206f7760008201527f6e6572206e6f7220617070726f76656420666f7220616c6c0000000000000000602082015250565b7f4552433732313a2062616c616e636520717565727920666f7220746865207a6560008201527f726f206164647265737300000000000000000000000000000000000000000000602082015250565b7f4552433732313a206f776e657220717565727920666f72206e6f6e657869737460008201527f656e7420746f6b656e0000000000000000000000000000000000000000000000602082015250565b7f45524337323155524953746f726167653a2055524920736574206f66206e6f6e60008201527f6578697374656e7420746f6b656e000000000000000000000000000000000000602082015250565b7f4552433732313a206d696e7420746f20746865207a65726f2061646472657373600082015250565b7f45524337323155524953746f726167653a2055524920717565727920666f722060008201527f6e6f6e6578697374656e7420746f6b656e000000000000000000000000000000602082015250565b7f4552433732313a20617070726f76656420717565727920666f72206e6f6e657860008201527f697374656e7420746f6b656e0000000000000000000000000000000000000000602082015250565b7f4f776e61626c653a2063616c6c6572206973206e6f7420746865206f776e6572600082015250565b7f596f75206d757374206f776e2074686973204e465420696e206f72646572207460008201527f6f20726573656c6c206974000000000000000000000000000000000000000000602082015250565b7f4552433732314d657461646174613a2055524920717565727920666f72206e6f60008201527f6e6578697374656e7420746f6b656e0000000000000000000000000000000000602082015250565b7f4552433732313a20617070726f76616c20746f2063757272656e74206f776e6560008201527f7200000000000000000000000000000000000000000000000000000000000000602082015250565b7f4552433732313a207472616e736665722063616c6c6572206973206e6f74206f60008201527f776e6572206e6f7220617070726f766564000000000000000000000000000000602082015250565b7f455243373231456e756d657261626c653a20676c6f62616c20696e646578206f60008201527f7574206f6620626f756e64730000000000000000000000000000000000000000602082015250565b6138b68161306a565b81146138c157600080fd5b50565b6138cd8161307c565b81146138d857600080fd5b50565b6138e481613088565b81146138ef57600080fd5b50565b6138fb816130d4565b811461390657600080fd5b5056fea2646970667358221220622aad68855cf9bff800db9864e83406c8e643e786b353ce41d49890d647fa7e64736f6c63430008040033",
  "linkReferences": {},
  "deployedLinkReferences": {}
}